:100000000C9434000C9476010C94A9010C944600D5
:100010000C9446000C9446000C9446000C94460048
:100020000C9446000C9446000C9446000C94460038
:100030000C9446000C9446000C9446000C94460028
:100040000C9446000C9446000C9446000C94460018
:100050000C9446000C9446000C9446000C94460008
:100060000C9446000C94460011241FBECFEFD8E03C
:10007000DEBFCDBF11E0A0E0B1E001C01D92AA300B
:10008000B107E1F70E94DC010C9478020C940000A7
:10009000E7E2F0E0808186608083E8E2F0E0808142
:1000A000817080838081826080830895E8E2F0E03F
:1000B00080818D7F808389EF90E00197F1F700C008
:1000C000000040E050E020E030E0A6E2B0E08081B7
:1000D0008460808389EF90E00197F1F700C0000011
:1000E00080818B7F808389EF90E00197F1F700C0DA
:1000F0000000440F551F8C9180FF02C04F5F5F4F7F
:100100002F5F3F4F2A30310511F7E8E2F0E08081A0
:1001100082608083842F952F089520910001309173
:1001200001012F5F3F4F3093010120930001822F87
:10013000932F089588E98093C100E2ECF0E080817C
:10014000866080831092C50089E18093C400089581
:10015000982FE0ECF0E0808185FFFDCF9093C60002
:10016000E0ECF0E0808185FFFDCF0895CF93DF9331
:10017000EC018881882331F00E94A80021968881B3
:100180008823D1F7DF91CF910895EF92FF920F93DB
:100190001F93DF93CF93CDB7DEB72A970FB6F894AE
:1001A000DEBF0FBECDBF7C018B01CA01BE016F5FF8
:1001B0007F4F4AE050E00E943302E981EE2319F4B8
:1001C00020E030E010C0D701A00FB11F20E030E0E8
:1001D000CE010196ED932F5F3F4FFC01E20FF31F1D
:1001E000E081EE23B9F7822F932F2A960FB6F89469
:1001F000DEBF0FBECDBFCF91DF911F910F91FF905A
:10020000EF9008956F927F928F929F92AF92BF92DC
:10021000DF92EF92FF920F931F93DF93CF93CDB7AF
:10022000DEB76D970FB6F894DEBF0FBECDBF5C0191
:100230004B013A018AE289830E948D00AC017E0164
:100240000894E11CF11CC70161E070E00E94C50048
:100250008C010F5F1F4FF701E00FF11F0F2EFCE223
:10026000DF2EF02DD0820F5F1F4FC701B801A5010F
:100270000E94C500080F191FF701E00FF11FD0827F
:100280000F5F1F4FC701B801A4010E94C500080FEE
:10029000191FF701E00FF11FD0820F5F1F4FC70139
:1002A000B801A3010E94C500080F191FF701E00F54
:1002B000F11F83E28083FE01E00FF11F1282C7016C
:1002C0000E94B6006D960FB6F894DEBF0FBECDBF8C
:1002D000CF91DF911F910F91FF90EF90DF90BF9032
:1002E000AF909F908F907F906F9008951F920F9284
:1002F0000FB60F9211242F933F938F939F9380916A
:10030000020190910301892B29F4109205011092AA
:1003100004010EC08091840090918500209102011B
:1003200030910301821B930B90930501809304018C
:100330008091840090918500909303018093020145
:100340009F918F913F912F910F900FBE0F901F9013
:1003500018951F920F920FB60F9211242F933F936F
:100360008F939F938091060190910701892B29F427
:1003700010920901109208010EC0809184009091A2
:1003800085002091060130910701821B930B909309
:1003900009018093080180918400909185009093D9
:1003A0000701809306019F918F913F912F910F90AC
:1003B0000FBE0F901F901895CF92DF92EF92FF9291
:1003C0000F931F93CF93DF93E1E8F0E08081846087
:1003D0008083A5E5B0E08C9183608C93EDE3F0E041
:1003E0008081816080838C918C608C93808182601D
:1003F00080830E949A000E944800789400E010E0F8
:10040000C0E0D0E0CC24DD240F2EF4E8EF2EFF2452
:10041000F02D0115110541F0F70180819181801BBC
:10042000910B82519A4770F08091080190910901D7
:100430006091040170910501A6010E940201F7017B
:1004400000811181209741F0F701808191818C1BFF
:100450009D0B82519A47E8F20E9456006C01F70109
:10046000C081D181D6CFFB019F01E8944230C4F016
:100470004532B4F44A3029F497FB1EF490958195E7
:100480009F4F642F77270E946402805D8A330CF0AF
:10049000895D8193CB010097A1F716F45DE251933A
:1004A0001082C9010C945402DC01FC01672F719188
:1004B0007723E1F7329704C07C916D93708362914A
:1004C000AE17BF07C8F30895AA1BBB1B51E107C0B5
:1004D000AA1FBB1FA617B70710F0A61BB70B881FD4
:1004E000991F5A95A9F780959095BC01CD01089563
:0404F000F894FFCFAE
:00000001FF
