:100000000C9434000C9448000C947B000C94460033
:100010000C9446000C9446000C9446000C94460048
:100020000C9446000C9446000C9446000C94460038
:100030000C9446000C9446000C9446000C94460028
:100040000C9446000C9446000C9446000C94460018
:100050000C9446000C9446000C9446000C94460008
:100060000C9446000C94460011241FBECFEFD8E03C
:10007000DEBFCDBF11E0A0E0B1E001C01D92AA300B
:10008000B107E1F70E94AE000C9439020C94000015
:100090001F920F920FB60F9211242F933F938F93BD
:1000A0009F938091000190910101009729F4109293
:1000B0000301109202010EC080918400909185008E
:1000C0002091000130910101821B930B9093030159
:1000D00080930201809184009091850090930101AA
:1000E000809300019F918F913F912F910F900FBEB0
:1000F0000F901F9018951F920F920FB60F92112418
:100100002F933F938F939F938091040190910501CA
:10011000009729F410920701109206010EC08091F9
:100120008400909185002091040130910501821B8B
:10013000930B909307018093060180918400909126
:10014000850090930501809304019F918F913F91C9
:100150002F910F900FBE0F901F90189580918100E6
:1001600084608093810085B7836085BFE89A85B7F6
:100170008C6085BFE99A0E94DD000E94B4017894EA
:1001800040E050E0809106019091070160910201EA
:10019000709103010E9442010E94BA01482F592F19
:1001A000F1CF20910801309109012F5F3F4F30932B
:1001B000090120930801C901089588E98093C100CD
:1001C000E2ECF0E08081866080831092C50089E1D6
:1001D0008093C40008959091C00095FFFCCF809358
:1001E000C6008091C00085FFFCCF0895EF92FF927A
:1001F000CF93DF93E82EE7017E01F92EE70102C0DD
:100200000E94EB0089918823D9F7DF91CF91FF906D
:10021000EF900895CF92DF92EF92FF920F931F938A
:10022000DF93CF93CDB7DEB72A970FB6F894DEBF32
:100230000FBECDBF7C016B01CA018E010F5F1F4F46
:10024000B8014AE050E00E94F401D801F701EC0D3A
:10025000FD1D20E030E003C081932F5F3F4F8D9163
:100260008823D1F7C9012A960FB6F894DEBF0FBED6
:10027000CDBFCF91DF911F910F91FF90EF90DF9055
:10028000CF9008956F927F928F929F92AF92BF927C
:10029000DF92EF92FF920F931F93DF93CF93CDB72F
:1002A000DEB76D970FB6F894DEBF0FBECDBF5C0111
:1002B0004B013A018AE289830E94D100AC017E01A0
:1002C0000894E11CF11CC70161E070E00E940A0182
:1002D0008C010F5F1F4FF701E00FF11F8CE2D82E4A
:1002E000D0820F5F1F4FC701B801A5010E940A010C
:1002F000080F191FF701E00FF11FD0820F5F1F4F8A
:10030000C701B801A4010E940A01080F191FF701D3
:10031000E00FF11FD0820F5F1F4FC701B801A3018B
:100320000E940A01080F191FF701E00FF11F83E275
:1003300080830C0F1D1FF8011282C7010E94F60076
:100340006D960FB6F894DEBF0FBECDBFCF91DF9193
:100350001F910F91FF90EF90DF90BF90AF909F9013
:100360008F907F906F90089587B1836087B9419A8D
:100370004098089541982FEF39E648E121503040E8
:100380004040E1F700C00000409A8FEF99E6A8E1F5
:1003900081509040A040E1F700C0000040982FEF4E
:1003A00039E648E1215030404040E1F700C000000C
:1003B0008AE090E0409A2FEF39E648E12150304042
:1003C0004040E1F700C0000026B140982FEF39E629
:1003D00048E1215030404040E1F700C00000019763
:1003E00049F780E090E00895FB019F01E8944230D6
:1003F000C4F04532B4F44A3029F497FB1EF49095CA
:1004000081959F4F642F77270E942502805D8A3354
:100410000CF0895D8193CB010097A1F716F45DE2A2
:1004200051931082C9010C941502DC01FC01672F65
:1004300071917723E1F7329704C07C916D937083BB
:100440006291AE17BF07C8F30895AA1BBB1B51E109
:1004500007C0AA1FBB1FA617B70710F0A61BB70B34
:10046000881F991F5A95A9F780959095BC01CD01D9
:060470000895F894FFCF8F
:00000001FF
